:100000000C9463000C948B000C948B000C948B006C
:100010000C948B000C948B000C948B000C940307B5
:100020000C948B000C948B000C948B000C948B0024
:100030000C948B000C948B000C948B000C948B0014
:100040000C94B7070C948B000C9485070C945F07F5
:100050000C948B000C948B000C948B000C948B00F4
:100060000C948B000C948B000000000024002700EF
:100070002A000000000023002600290000000008DC
:10008000000201000003040700000000000000005F
:10009000010204081020408001020408102001021F
:1000A0000408102000000000250028002B00040494
:1000B0000404040404040202020202020303030310
:1000C00003030200ED0A11241FBECFEFD8E0DEBF0C
:1000D000CDBF11E0A0E0B1E0EEE5FDE102C005908A
:1000E0000D92AE36B107D9F722E0AEE6B1E001C01D
:1000F0001D92A833B207E1F710E0C3E6D0E004C0D8
:100100002197FE010E94A10CC236D107C9F70E94B7
:1001100001080C94AD0E0C940000AF92BF92CF92E8
:10012000DF92EF92FF920F931F93CF93DF936C01B7
:100130007B018B01040F151FEB015E01AE18BF0898
:10014000C017D10759F06991D601ED91FC9101904A
:10015000F081E02DC6010995892B79F7C501DF9162
:10016000CF911F910F91FF90EF90DF90CF90BF90B4
:10017000AF900895FC01538D448D252F30E0842FDE
:1001800090E0821B930B541710F0CF9608950197BF
:100190000895FC01918D828D981761F0A28DAE0FAC
:1001A000BF2FB11D5D968C91928D9F5F9F73928F33
:1001B00090E008958FEF9FEF0895FC01918D828D5F
:1001C000981731F0828DE80FF11D858D90E008952C
:1001D0008FEF9FEF0895FC01918D228D892F90E084
:1001E000805C9F4F821B91098F739927089586E841
:1001F00091E00E94EB0021E0892B09F420E0822F9E
:10020000089580E090E0892B29F00E94F700811189
:100210000C9400000895FC01A48DA80FB92FB11D06
:10022000A35ABF4F2C91848D90E001968F7399272C
:10023000848FA689B7892C93A089B1898C9183700A
:1002400080648C93938D848D981306C00288F38903
:10025000E02D80818F7D80830895EF92FF920F9330
:100260001F93CF93DF93EC0181E0888F9B8D8C8D62
:1002700098131AC0E889F989808185FF15C09FB756
:10028000F894EE89FF896083E889F9898081837019
:10029000806480839FBF81E090E0DF91CF911F91C8
:1002A0000F91FF90EF900895F62E0B8D10E00F5FE9
:1002B0001F4F0F731127E02E8C8D8E110CC00FB6BF
:1002C00007FCFACFE889F989808185FFF5CFCE0157
:1002D0000E940B01F1CFEB8DEC0FFD2FF11DE35AC6
:1002E000FF4FF0829FB7F8940B8FEA89FB898081DA
:1002F0008062CFCFCF93DF93EC01888D8823B9F054
:10030000AA89BB89E889F9898C9185FD03C0808120
:1003100086FD0DC00FB607FCF7CF8C9185FFF2CF9D
:10032000808185FFEDCFCE010E940B01E9CFDF91E7
:10033000CF910895833081F028F4813099F0823094
:10034000A9F008958730A9F08830C9F08430B1F45D
:10035000809180008F7D03C0809180008F77809393
:100360008000089584B58F7784BD089584B58F7D0E
:10037000FBCF8091B0008F778093B000089580917B
:10038000B0008F7DF9CF1F93CF93DF93282F30E0FC
:10039000F901E458FF4F8491F901E057FF4FD491E0
:1003A000F901E255FF4FC491CC23A9F0162F81111A
:1003B0000E949A01EC2FF0E0EE0FFF1FEC55FF4F6B
:1003C000A591B4918FB7F894EC91111108C0D09514
:1003D000DE23DC938FBFDF91CF911F910895DE2B39
:1003E000F8CF9091000189130BC0E2ECF0E0E491AA
:1003F0009FEF90930001E13049F028F0E23061F086
:1004000060E00C94C30110926E00FACF90916F00DF
:100410009D7F90936F00F4CF909170009D7F90939B
:10042000700091E09093B0009091B100987F94603B
:100430009093B1001092B300E3CFCF93DF9390E09D
:10044000FC01E057FF4F249182559F4FFC0184919E
:100450008823D1F090E0880F991FFC01E859FF4FE5
:10046000A591B491FC01EC55FF4FC591D491611158
:100470000EC09FB7F8948C91E22FE0958E238C9359
:100480002881E223E8839FBFDF91CF9108958FB742
:10049000F894EC91E22BEC938FBFF6CFCF92DF92E2
:1004A000EF92FF92CF936C0180910001833049F06D
:1004B0008F3F09F444C0CF91FF90EF90DF90CF9031
:1004C0000895E2ECF0E0C491C7FDF5CF61E083E070
:1004D0000E941D02F12CE12CCC23D9F0960150E0B2
:1004E00040E0C23009F09AC07A0160E970ED83E023
:1004F00090E00E94F30BBA01A90141505109610932
:10050000710993E04F3F51056105710509F00CF445
:10051000C1C068E478EE81E090E0A70196010E94F6
:10052000F30BBA01A901415051096109710994E025
:10053000C111B0C085B5887F836085BDB7C083E039
:1005400080930001E2ECF0E0C491CF3F09F4B3CF17
:10055000C13021F150F0C23009F43EC0C7FDABCF2D
:1005600061E083E00E941D02B9CF14BC15BC84B5C4
:10057000826084BD85B5816085BDE1EBF0E0E491EA
:10058000F0E0EE0FFF1FEC55FF4F85919491E3E9EA
:10059000F0E0E491E0932702C0E098CF1092800051
:1005A0001092810080918100886080938100809109
:1005B0008100816080938100E1EBF0E0E491F0E064
:1005C000EE0FFF1FEC55FF4F85919491E3E9F0E0AA
:1005D000E491E09326027ACF1092B0001092B1001D
:1005E0008091B00082608093B0008091B100816002
:1005F0008093B100E1EBF0E0E491F0E0EE0FFF1F3B
:10060000EC55FF4F8591949190932502809324029D
:10061000E3E9F0E0E491E093230258CF60E072E177
:100620008AE790E00E94F30BBA01A90141505109F9
:1006300061097109C130A1F580918100887F8160D5
:100640008093810050938900409388008FEF9FEF43
:10065000DC0180932C0290932D02A0932E02B09384
:100660002F0280916F00826080936F0024CF4093AF
:10067000B3008FEF9FEFDC01809328029093290253
:10068000A0932A02B0932B02809170008260809325
:10069000700011CF8091B100887F892B8093B100C9
:1006A000C13081F2C23019F3C11105CF47BD8FEFC0
:1006B0009FEFDC018093300290933102A0933202CD
:1006C000B093330280916E00826080936E00F3CE0F
:1006D000806480937C0080917A00806480937A00AB
:1006E00080917A0086FDFCCF80917800909179000E
:1006F00008953FB7F8948091730190917401A0918F
:100700007501B091760126B5A89B05C02F3F19F061
:100710000196A11DB11D3FBFBA2FA92F982F882781
:10072000BC01CD01620F711D811D911D42E0660F5C
:10073000771F881F991F4A95D1F708958F929F922E
:10074000AF92BF92CF92DF92EF92FF924B015C018A
:100750000E9479036B017C010E9479036C197D0969
:100760008E099F09683E734081059105A8F321E039
:10077000821A9108A108B10888EEC80E83E0D81E3D
:10078000E11CF11C81149104A104B10429F7FF902C
:10079000EF90DF90CF90BF90AF909F908F90089593
:1007A000CF93DF9382E00E946803C0917901D091DA
:1007B0007A018C1B9D0B18161906FCF482E00E942E
:1007C00068038C1B9D0B8D329140FCF483E00E94EA
:1007D0006803C0917701D09178018C1B9D0B18168E
:1007E0001906C4F083E00E946803C81BD90B81E09E
:1007F00090E0CD32D1405CF418C082E00E946803E2
:10080000C81BD90BCD32D1400CF381E090E0DF91D1
:10081000CF91089583E00E9468039C012C1B3D0B3F
:1008200081E090E02D32314094F780E0F0CF81E01C
:100830000E94680321E030E0853F914014F430E0ED
:1008400020E0C901089542E050E06DE171E086E8E2
:1008500091E00C948D00CF93DF93FC010190002078
:10086000E9F73197AF01481B590BBC0186E891E0CD
:100870000E948D00EC010E9423048C0F9D1FDF91CC
:10088000CF910895CF93DF93FC014481558160811E
:10089000718186E891E00E948D00EC010E942304A2
:1008A0008C0F9D1FDF91CF910895CF93DF93D82FA9
:1008B000C8E06D2F617080E00E94C301D69561E0B1
:1008C00081E00E94C30160E081E00E94C301C15049
:1008D00081F7DF91CF9108950F931F93CF93DF930B
:1008E000EC0188819981009759F02A813B81261774
:1008F000370730F081E0DF91CF911F910F9108957C
:100900008B016F5F7F4F0E94E00D009759F0998334
:1009100088831B830A832C813D81232B59F7FC019B
:100920001082E8CF80E0E7CFCF93DF93EC0188819E
:100930009981009711F00E94570D198218821D822B
:100940001C821B821A82DF91CF9108950F931F930F
:10095000CF93DF93EC010C811D810D5F1F4FB80118
:100960000E946C04882391F0288139818C819D81BB
:1009700062E571E0820F931F0E94A60E1D830C8317
:10098000CE01DF91CF911F910F910895CE010E946A
:100990009404F6CFEF92FF920F931F93CF93DF93C0
:1009A000EC01198218821B821A821D821C82861712
:1009B000970719F1FB010081118101151105E9F07B
:1009C000E480F580B7010E946C04811109C0CE015A
:1009D000DF91CF911F910F91FF90EF900C949404B1
:1009E000FD82EC82B80188819981DF91CF911F91BE
:1009F0000F91FF90EF900C94A60EDF91CF911F9175
:100A00000F91FF90EF900895CF93DF93EC0119823F
:100A100018821B821A821D821C826BE070E00E9489
:100A20006C04811105C0CE01DF91CF910C94940428
:100A30008BE090E09D838C8360E271E088819981F6
:100A4000DF91CF910C94A60ECF92DF92EF92FF929E
:100A50000F931F93CF93DF93CDB7DEB728970FB6D1
:100A6000F894DEBF0FBECDBF7C01CB014AE09E01F2
:100A70002F5F3F4F6901B9010E94BE0BF601019043
:100A80000020E9F73197EC19FD09D9F0D701149648
:100A90000D911C910E0F1F1FB801C7010E946C041D
:100AA0008823F9F0F7012081318184819581B60195
:100AB000820F931F0E94A60ED70115961C930E93CA
:100AC0001497C70128960FB6F894DEBF0FBECDBFAE
:100AD000DF91CF911F910F91FF90EF90DF90CF901A
:100AE0000895C7010E949404ECCFFC01808191819C
:100AF000009711F00C94570D0895CF93DF93CDB765
:100B0000DEB72C970FB6F894DEBF0FBECDBF8A308C
:100B1000910508F03CC1FC01EE56FA4FCE0101965A
:100B20000C94A10C9C05C205DF05FC0519063606D0
:100B3000530670068D06AA060E940405BE016F5F6B
:100B40007F4FCE0107960E94CA0470E060E0CE019C
:100B500007960E9424050E94A6040E944204CE012A
:100B600007960E947505CE0101960E94750583E0E7
:100B700080952C960FB6F894DEBF0FBECDBFDF91E7
:100B8000CF9108950E940405BE016F5F7F4FCE0193
:100B900007960E94CA0461E070E0CE0107960E94A9
:100BA00024050E94A6040E944204CE0107960E94DA
:100BB0007505CE0101960E9475058FE9D9CF0E9477
:100BC0000405BE016F5F7F4FCE0107960E94CA04E5
:100BD00062E070E0CE0107960E9424050E94A60400
:100BE0000E944204CE0107960E947505CE0101962F
:100BF0000E94750585E2BCCF0E940405BE016F5FAF
:100C00007F4FCE0107960E94CA0463E070E0CE01D8
:100C100007960E9424050E94A6040E944204CE0169
:100C200007960E947505CE0101960E9475058DE01C
:100C30009FCF0E940405BE016F5F7F4FCE010796D4
:100C40000E94CA0464E070E0CE0107960E94240569
:100C50000E94A6040E944204CE0107960E947505D8
:100C6000CE0101960E94750589E982CF0E94040594
:100C7000BE016F5F7F4FCE0107960E94CA0465E0F8
:100C800070E0CE0107960E9424050E94A6040E94EF
:100C90004204CE0107960E947505CE0101960E947E
:100CA000750589E465CF0E940405BE016F5F7F4F23
:100CB000CE0107960E94CA0466E070E0CE01079656
:100CC0000E9424050E94A6040E944204CE010796B9
:100CD0000E947505CE0101960E94750581E448CFFA
:100CE0000E940405BE016F5F7F4FCE0107960E94F0
:100CF000CA0467E070E0CE0107960E9424050E94B6
:100D0000A6040E944204CE0107960E947505CE01FA
:100D100001960E9475058FE12BCF0E940405BE014C
:100D20006F5F7F4FCE0107960E94CA0468E070E0B3
:100D3000CE0107960E9424050E94A6040E94420448
:100D4000CE0107960E947505CE0101960E94750599
:100D500081E00ECF0E940405BE016F5F7F4FCE0180
:100D600007960E94CA0469E070E0CE0107960E94CF
:100D700024050E94A6040E944204CE0107960E9408
:100D80007505CE0101960E94750589E0F1CE8CE2D1
:100D900091E00E942B0483E9EBCE1F93CF93DF9366
:100DA00080918201909183018436910520F086E53F
:100DB00091E00E942B048091820190918301CAE00E
:100DC000D0E0BE010E948D0CCB010E947D05182F42
:100DD0008091820190918301BE010E948D0C0E943E
:100DE0007D05C82F60E082E00E94C3018C2F0E9425
:100DF0005504812F0E94550461E082E0DF91CF917C
:100E00001F910C94C3011F920F920FB60F921124E1
:100E10002F933F934F935F936F937F938F939F9302
:100E2000AF93BF93EF93FF93809128029091290293
:100E3000A0912A02B0912B02892B8A2B8B2BD1F106
:100E400090912302E0912402F0912502808189276C
:100E500080838091280290912902A0912A02B0916A
:100E60002B02181619061A061B069CF480912802FC
:100E700090912902A0912A02B0912B020197A10919
:100E8000B1098093280290932902A0932A02B0937B
:100E90002B02FF91EF91BF91AF919F918F917F9125
:100EA0006F915F914F913F912F910F900FBE0F90D7
:100EB0001F901895809100010E94F101EACF1F92C6
:100EC0000F920FB60F9211242F933F934F935F937E
:100ED0006F937F938F939F93AF93BF93EF93FF9302
:100EE00086E891E00E940B01FF91EF91BF91AF91D5
:100EF0009F918F917F916F915F914F913F912F9132
:100F00000F900FBE0F901F9018951F920F920FB663
:100F10000F9211242F938F939F93EF93FF93E09160
:100F20009601F09197018081E0919C01F0919D01E3
:100F300082FD1BC0908180919F018F5F8F732091F4
:100F4000A001821741F0E0919F01F0E0EA57FE4FC7
:100F5000958F80939F01FF91EF919F918F912F919A
:100F60000F900FBE0F901F9018958081F4CF1F92A5
:100F70000F920FB60F9211242F933F938F939F934D
:100F8000AF93BF9380916F0190917001A091710117
:100F9000B091720130916E0123E0230F2D3758F587
:100FA0000196A11DB11D20936E0180936F01909356
:100FB0007001A0937101B0937201809173019091BF
:100FC0007401A0917501B09176010196A11DB11D2A
:100FD0008093730190937401A0937501B09376018F
:100FE000BF91AF919F918F913F912F910F900FBE25
:100FF0000F901F90189526E8230F0296A11DB11D92
:10100000D2CF789484B5826084BD84B5816084BD7C
:1010100085B5826085BD85B5816085BD80916E0096
:10102000816080936E0010928100809181008260C7
:101030008093810080918100816080938100809104
:1010400080008160809380008091B10084608093F3
:10105000B1008091B00081608093B00080917A00EF
:10106000846080937A0080917A00826080937A0015
:1010700080917A00816080937A0080917A00806804
:1010800080937A001092C100E0919601F09197014F
:1010900082E08083E0919201F09193011082E091CF
:1010A0009401F09195018FEC808310929E01E09164
:1010B0009A01F0919B0186E08083E0919801F09184
:1010C0009901808180618083E0919801F09199017C
:1010D000808188608083E0919801F09199018081FE
:1010E00080688083E0919801F091990180818F7DE3
:1010F000808360E080E00E941D0260E081E00E9449
:101100001D0260E082E00E941D0260E083E00E9418
:101110001D0261E083E00E941D0261E085E00E9403
:101120001D0261E086E00E941D0261E087E00E94EE
:101130001D0261E080E00E941D0261E081E00E94EA
:101140001D0261E082E00E941D0261E082E00E94D7
:10115000C3011092830110928201109285011092B6
:10116000840110927B0182E00E94680390937A01CF
:101170008093790183E00E946803909378018093C3
:10118000770122E0422E512C612C712C882483940B
:10119000912C95E0292E312C0E9417048130910565
:1011A00051F49093850180938401109283011092F1
:1011B00082010E94CD068091840190918501019762
:1011C00009F0FEC162E370E080E090E00E949E03BF
:1011D0000E94660BA30192010E94F30BDC01CB017C
:1011E0000296A11DB11D8C01909381018093800115
:1011F00061E08130910509F066C085E00E94C3017D
:1012000080ED97E00E944E0264E670E080E090E09E
:101210000E949E0383E00E94F10160E085E00E944D
:10122000C30110927F0110927E01C0918201D09182
:101230008301CA30D1050CF06EC08EE190E090932E
:101240007D0180937C01F12CE12CA0907C01B09079
:101250007D01EA14FB040CF091C00130110509F086
:101260007CC0ECE7F0E08491E0E9F0E0D490EEEAB5
:10127000F0E0C490CC2009F479C081110E949A0159
:10128000EC2DF0E0EE0FFF1FEE58FF4FA591B4914B
:101290008C91D82209F46AC088EB9BE00E944E0230
:1012A00062E370E080E090E00E949E0383E00E9491
:1012B000F1012196D0938301C093820110927F01A6
:1012C00010927E015BC0029799F486E00E94C301F0
:1012D00088EE93E00E944E0264E670E080E090E0C9
:1012E0000E949E0383E00E94F10160E086E097CFB8
:1012F00087E00E94C30184EF91E00E944E0264E601
:1013000070E080E090E00E949E0383E00E94F10183
:1013100060E087E084CFE4E1F0E0C931D1055CF022
:101320008FE090E0C233D1050CF489CFCB34D105E6
:101330003CF4EAE0F0E0F0937D01E0937C0183CFA0
:10134000CA35D1052CF430927D0120927C017BCFEF
:1013500090927D0180927C0176CF0230110509F0D8
:1013600014C10E941704019709F496CF0E94170434
:10137000892B09F40DC181E080937B0180917B0171
:10138000811108C080917E0190917F01A816B90655
:1013900009F085C084EF91E00E944E0261E085E093
:1013A0000E94C30161E086E00E94C30161E087E022
:1013B0000E94C30162E370E080E090E00E949E031F
:1013C00083E00E94F10160E085E00E94C30160E0DB
:1013D00086E00E94C30160E087E00E94C30162E3EF
:1013E00070E080E090E00E949E0384EF91E00E9414
:1013F0004E0261E085E00E94C30161E086E00E9448
:10140000C30161E087E00E94C30162E370E080E015
:1014100090E00E949E0383E00E94F10160E085E07D
:101420000E94C30160E086E00E94C30160E087E0A3
:101430000E94C30162E370E080E090E00E949E039E
:1014400084EF91E00E944E0261E085E00E94C301BA
:1014500061E086E00E94C30161E087E00E94C30171
:1014600066E970E080E090E00E949E0383E00E94C5
:10147000F10160E085E00E94C30160E086E00E9427
:10148000C30160E087E00E94C30162E370E080E096
:1014900090E00E949E031092850110928401809139
:1014A0008201909183018336910509F082CE80ED0F
:1014B00097E00E944E0261E087E00E94C30162E370
:1014C00070E080E090E00E949E0383E00E94F101C2
:1014D00060E087E00E94C30161E086E00E94C301F2
:1014E00062E370E080E090E00E949E0380ED97E070
:1014F0000E944E0260E086E00E94C30161E085E048
:101500000E94C30162E370E080E090E00E949E03CD
:1015100083E00E94F10160E085E00E94C30162E384
:1015200070E080E090E00E949E0384EC99E00E94CD
:101530004E0261E085E00E94C30161E086E00E9406
:10154000C30161E087E00E94C30166E970E080E0CA
:1015500090E00E949E0383E00E94F10160E085E03C
:101560000E94C30160E086E00E94C30160E087E062
:101570000E94C30162E370E080E090E00E949E035D
:10158000109285011092840114CE0E94D003EBCEFC
:101590000E94D003892B09F0EECE80917E019091BC
:1015A0007F01019690937F0180937E0164E670E055
:1015B00080E090E00E949E03FFEFEF1AFF0A45CE05
:1015C00080E090E0892B09F4E7CD0E94F7008823A2
:1015D00009F4DFCD0E940000DCCDE6E8F1E01382E3
:1015E000128288EE93E0A0E0B0E084839583A68326
:1015F000B7838FE091E09183808385EC90E09587BD
:10160000848784EC90E09787868780EC90E0918BCC
:10161000808B81EC90E0938B828B82EC90E0958BB9
:10162000848B86EC90E0978B868B118E128E138EB6
:10163000148E08958F929F92AF92BF92CF92DF92B5
:10164000EF92FF92CF93DF93EC01688179818A81D9
:101650009B81611571058105910521F464E279EDA5
:101660008BE597E02DE133EF41E050E00E94F30B72
:1016700049015A019B01AC01A7EAB1E40E94120C96
:101680006B017C01ACEEB4EFA50194010E94200C2B
:10169000C60ED71EE81EF91EF7FE06C081E0C81A66
:1016A000D108E10880E8F80AC882D982EA82FB8280
:1016B000C701B6019F77DF91CF91FF90EF90DF9048
:1016C000CF90BF90AF909F908F9008958F929F92F0
:1016D000AF92BF92CF92DF92EF92FF9260910101A1
:1016E00070910201809103019091040161157105CF
:1016F0008105910521F464E279ED8BE597E02DE118
:1017000033EF41E050E00E94F30B49015A019B0185
:10171000AC01A7EAB1E40E94120C6B017C01ACEEB3
:10172000B4EFA50194010E94200CC60ED71EE81E3E
:10173000F91EF7FE06C081E0C81AD108E10880E86A
:10174000F80AC0920101D0920201E0920301F092E6
:101750000401C701B6019F77FF90EF90DF90CF9013
:10176000BF90AF909F908F90089560930101709308
:10177000020180930301909304010895BB274A302E
:1017800031F4992322F4BDE2909581959F4F0C94FA
:10179000CA0BBB27FB015527AA27880F991FAA1F31
:1017A000A41710F0A41B83955051B9F7A05DAA337C
:1017B00008F0A95DA193009779F7B111B193119247
:1017C000CB010C94E30BDC01FC01672F71917723B3
:1017D000E1F7329704C07C916D9370836291AE17EC
:1017E000BF07C8F30895052E97FB1EF400940E94CE
:1017F0000A0C57FD07D00E945C0C07FC03D04EF486
:101800000C940A0C50954095309521953F4F4F4FC1
:101810005F4F089590958095709561957F4F8F4F9C
:101820009F4F08950E947E0CA59F900DB49F900D30
:10183000A49F800D911D11240895B7FF0C94120CE4
:101840000E94120C821B930B08952F923F924F928D
:101850005F926F927F928F929F92AF92BF92CF9240
:10186000DF92EF92FF920F931F93CF93DF93CDB749
:10187000DEB7CA1BDB0B0FB6F894DEBF0FBECDBFC1
:1018800009942A88398848885F846E847D848C8492
:101890009B84AA84B984C884DF80EE80FD800C819B
:1018A0001B81AA81B981CE0FD11D0FB6F894DEBF7E
:1018B0000FBECDBFED010895A1E21A2EAA1BBB1BDE
:1018C000FD010DC0AA1FBB1FEE1FFF1FA217B3070C
:1018D000E407F50720F0A21BB30BE40BF50B661F22
:1018E000771F881F991F1A9469F7609570958095E6
:1018F00090959B01AC01BD01CF010895A29FB0015D
:10190000B39FC001A39F700D811D1124911DB29F33
:10191000700D811D1124911D089597FB072E16F45B
:10192000009407D077FD09D00E94A70C07FC05D0D2
:101930003EF4909581959F4F0895709561957F4FE6
:101940000895EE0FFF1F0590F491E02D0994AA1B56
:10195000BB1B51E107C0AA1FBB1FA617B70710F09A
:10196000A61BB70B881F991F5A95A9F780959095CC
:10197000BC01CD0108950F931F93CF93DF93823065
:10198000910510F482E090E0E0913602F091370288
:1019900030E020E0B0E0A0E0309799F42115310567
:1019A00009F44AC0281B390B24303105D8F58A8147
:1019B0009B816115710589F1FB0193838283FE018F
:1019C00011C0408151810281138148175907E0F00D
:1019D0004817590799F4109761F012960C931297D3
:1019E00013961C933296CF01DF91CF911F910F91E7
:1019F00008950093360210933702F4CF2115310574
:101A000051F04217530738F0A901DB019A01BD01DB
:101A1000DF01F801C1CFEF01F9CF90933702809336
:101A20003602CDCFFE01E20FF31F81939193225036
:101A3000310939832883D7CF209134023091350280
:101A4000232B41F420910701309108013093350296
:101A500020933402209105013091060121153105B2
:101A600041F42DB73EB74091090150910A01241B62
:101A7000350BE0913402F0913502E217F307A0F440
:101A80002E1B3F0B2817390778F0AC014E5F5F4FD4
:101A90002417350748F04E0F5F1F509335024093CF
:101AA0003402819391939FCFF0E0E0E09CCFCF93FD
:101AB000DF930097E9F0FC01329713821282A09124
:101AC0003602B0913702ED0130E020E01097A1F42A
:101AD00020813181820F931F209134023091350291
:101AE0002817390709F061C0F0933502E0933402FA
:101AF000DF91CF910895EA01CE17DF07E8F54A811B
:101B00005B819E0141155105B1F7E901FB83EA8331
:101B100049915991C40FD51FEC17FD0761F48081DD
:101B200091810296840F951FE901998388838281B0
:101B300093819B838A83F0E0E0E012968D919C91E3
:101B400013970097B9F52D913C911197CD0102960D
:101B5000820F931F209134023091350228173907E4
:101B600039F6309751F51092370210923602B09341
:101B70003502A0933402BCCFD383C283408151810C
:101B8000840F951FC817D90761F44E5F5F4F888196
:101B90009981480F591F518340838A819B81938388
:101BA00082832115310509F0B0CFF0933702E0931D
:101BB00036029ECFFD01DC01C0CF13821282D7CF47
:101BC000B0E0A0E0E6EEFDE00C94270C8C0100975D
:101BD00051F4CB010E94BB0C8C01C801CDB7DEB71C
:101BE000E0E10C94430CFC01E60FF71F9C0122502E
:101BF0003109E217F30708F49DC0D901CD91DC91BA
:101C00001197C617D70798F0C530D10530F3CE012C
:101C100004978617970708F3C61BD70B2297C19323
:101C2000D1936D937C93CF010E94570DD6CF5B016A
:101C3000AC1ABD0A4C018C0E9D1EA0913602B091CB
:101C40003702512C412CF12CE12C109731F5809169
:101C50003402909135028815990509F05CC046164A
:101C6000570608F058C08091050190910601009731
:101C700041F48DB79EB74091090150910A01841B30
:101C8000950BE817F90708F055C0F0933502E0937B
:101C90003402F90171836083A0CF8D919C911197DB
:101CA00012966C90129713967C901397A815B9050D
:101CB00059F56C0142E0C40ED11CCA14DB0420F1BA
:101CC000AC014A195B09DA011296159780F062821D
:101CD000738251834083D9016D937C93E114F104A5
:101CE00071F0D7011396FC93EE93129776CF22965C
:101CF0008C0F9D1FF90191838083F301EFCFF09347
:101D00003702E093360269CF4816590608F42C01D1
:101D10007D01D3019ACFCB010E94BB0C7C010097BF
:101D200049F0AE01B8010E949D0EC8010E94570DF6
:101D3000870153CF10E000E050CFFB01DC0102C06F
:101D400001900D9241505040D8F70895FB01DC01FD
:0E1D500001900D920020E1F70895F894FFCF66
:101D5E00FF01000000000038028000000000002D8E
:101D6E00018D00BA007A01EB00C900DD000D0A00FA
:101D7E00446973706C6179696E6720004572726F89
:101D8E00723A204F7574206F6620626F756E6473A1
:101D9E002E20446973706C6179696E67204572728A
:101DAE006F722E2E2E0053636F7265206973206F33
:0E1DBE007574206F6620626F756E64732E0060
:00000001FF
